{
  "transactions": [
    {
      "hash": "0xa6663d5384cab77eb8f7df6c6fead8eb8a21e18cfe734ff24e6d20a31e4792e9",
      "transactionType": "CALL",
      "contractName": null,
      "contractAddress": "0x4056f91014d29f862a8f78d977e430b89bcc84c8",
      "function": "mintCertNft(string)",
      "arguments": [
        "https://ipfs.io/ipfs/bafkreia3ubfxks6yjj3jet73lxkzhrbcsgg62pwb4zrarqgzarjvfvmhei"
      ],
      "transaction": {
        "from": "0x008dd4610bbe012ce6df831b64715866aea249fc",
        "to": "0x4056f91014d29f862a8f78d977e430b89bcc84c8",
        "gas": "0x321a4",
        "value": "0x0",
        "input": "0x4e715cae0000000000000000000000000000000000000000000000000000000000000020000000000000000000000000000000000000000000000000000000000000005068747470733a2f2f697066732e696f2f697066732f6261666b7265696133756266786b7336796a6a336a657437336c786b7a687262637367673632707762347a72617271677a61726a7666766d68656900000000000000000000000000000000",
        "nonce": "0x19",
        "chainId": "0xaa36a7"
      },
      "additionalContracts": [],
      "isFixedGasLimit": false
    }
  ],
  "receipts": [
    {
      "status": "0x1",
      "cumulativeGasUsed": "0x1358e5a",
      "logs": [
        {
          "address": "0x4056f91014d29f862a8f78d977e430b89bcc84c8",
          "topics": [
            "0xddf252ad1be2c89b69c2b068fc378daa952ba7f163c4a11628f55a4df523b3ef",
            "0x0000000000000000000000000000000000000000000000000000000000000000",
            "0x000000000000000000000000008dd4610bbe012ce6df831b64715866aea249fc",
            "0x0000000000000000000000000000000000000000000000000000000000000004"
          ],
          "data": "0x",
          "blockHash": "0xdd9228d98e923a286858763a2f5e9de71ab527b0562d3197a2512313530023f7",
          "blockNumber": "0x8800b5",
          "transactionHash": "0xa6663d5384cab77eb8f7df6c6fead8eb8a21e18cfe734ff24e6d20a31e4792e9",
          "transactionIndex": "0xac",
          "logIndex": "0x134",
          "removed": false
        }
      ],
      "logsBloom": "0x00000000000800000000000000000000000000000000000000000001000000000000000000000000000000000000000000000000000000000000000000000000000000000000000040000008000000000000000000000000000000000000000008000000020000000000000000000800000000800000000000000010000000000000000000000000000000000000000000000000000000000001000000000000000000000000000000000000040000000000000000000000002000000000000000000002000000000000000000000000000000008000000000000000000020000000000000000000000000000000000000000000000000000000000000000000",
      "type": "0x2",
      "transactionHash": "0xa6663d5384cab77eb8f7df6c6fead8eb8a21e18cfe734ff24e6d20a31e4792e9",
      "transactionIndex": "0xac",
      "blockHash": "0xdd9228d98e923a286858763a2f5e9de71ab527b0562d3197a2512313530023f7",
      "blockNumber": "0x8800b5",
      "gasUsed": "0x24460",
      "effectiveGasPrice": "0x160265",
      "from": "0x008dd4610bbe012ce6df831b64715866aea249fc",
      "to": "0x4056f91014d29f862a8f78d977e430b89bcc84c8",
      "contractAddress": null
    }
  ],
  "libraries": [],
  "pending": [],
  "returns": {},
  "timestamp": 1754336556,
  "chain": 11155111,
  "commit": "5d01ed9"
}
